:10000000FEC200008BC7000015C3000013C3000030
:1000100011C300000FC300000DC300000BC300009C
:1000200009C3000007C3000005C30000C9C70000E2
:1000300001C30000FFC20000FDC20000FBC20000BF
:100040006BC50000F7C20000F5C20000F3C200005B
:10005000F1C20000EFC20000EDC20000EBC20000E0
:10006000E9C20000E7C20000000000000080FFFFBE
:10007000FF8000327DFFFFFF7D000000FFFFFFFFDC
:100080000000000080FF00000001020304060709D1
:100090000C0E1114171A1D2124282C3033373B3F26
:1000A00043474B4F53575B5E6265686B6E71737568
:1000B00078797B7C7D7E7F7F807F7F7E7D7C7B7976
:1000C000787673716E6B6865625E5B57534F4C4810
:1000D00044403C3834302C2824211D1A1714110EAA
:1000E0000C0A0706040302010000000001020406D6
:1000F000080C0F13181D22282E343B424950585F1C
:10010000676F777F878F979FA6AEB5BCC3CAD0D6DF
:10011000DCE1E6EBEFF2F5F8FAFCFDFEFFFEFDFC9C
:10012000FAF8F6F2EFEBE6E1DCD6D0CAC3BCB5AE26
:10013000A69F978F877F776F675F585049423B3400
:100140002E28221D18130F0C0906040201000000BE
:10015000000000000000000000000000000000009F
:10016000000000000000000000000000000000008F
:10017000000000000000000000000000000000007F
:10018000000000000000000000000000000000006F
:10019000000000000000000000000000000000005F
:1001A000000000000000000000000000000000004F
:1001B000000000000000000000000000000000003F
:1001C000000000000000000000000000000000002F
:1001D000000000000000000000000000000000001F
:1001E00000000000000103040608090B0D0E1012A8
:1001F000131516181A1B1D1F2022242527292A2C07
:100200002D2F3132343637393B3C3E3F4143444653
:1002100048494B4D4E505255585C5F63666A6D714C
:1002200074787B7E8285898C9093979A9EA1A5A8ED
:10023000ABAFB2B6B9BDC0C4C7CBCED2D5D8DCDF68
:10024000E3E6EAEDF1F4F8FBFFFDFBFAF8F7F5F36E
:10025000F2F0EFEDEBEAE8E7E5E3E2E0DFDDDBDA41
:10026000D8D7D5D3D2D0CFCDCBCAC8C7C5C3C2C0CB
:10027000BFBDBBBAB8B7B5B3B2B0AFADABA9A7A558
:10028000A3A1A09E9C9A98969493918F8D8B898719
:10029000868482807E7C7A79777573716F6D6C6AE3
:1002A00068666462605F5D5B5957555352504E4DAE
:1002B0004B4948464443413F3E3C3B393736343254
:1002C000312F2D2C2A2927252422201F1D1B1A18E7
:1002D00016151312100E0D0B090806040301000178
:1002E00003040608090B0D0E1012131516181A1B1D
:1002F0001D1F2022242527292A2C2D2F3132343668
:1003000037393B3C3E3F4143444648494B4D4E50B4
:1003100052535557595B5D5F60626466686A6C6DE5
:100320006F71737577797A7C7E8082848687898BFA
:100330008D8F91939496989A9C9EA0A1A3A5A7A90E
:10034000ABADAFB0B2B3B5B7B8BABBBDBFC0C2C337
:10035000C5C7C8CACBCDCFD0D2D3D5D7D8DADBDD8D
:10036000DFE0E2E3E5E7E8EAEBEDEFF0F2F3F5F7E3
:10037000F8FAFBFDFFFDFBFAF8F7F5F3F2F0EFED0D
:10038000EBEAE8E7E5E3E2E0DFDDDBDAD8D7D5D377
:10039000D2D0CFCDCBCAC8C7C5C3C2C0BFBDBBBA00
:1003A000B8B7B5B3B2B0AFABA8A4A19D9A96938FDE
:1003B0008C8885817E7A7773706C6965625E5B5725
:1003C00054504D4945423F3B3834302D2A26231F97
:1003D0001C1815110E0A07030000000000000000A1
:1003E000000000000000000000000000000000000D
:1003F00000000000000000000000000000000000FD
:1004000000000000000000000000000000000000EC
:1004100000000000000000000000000000000000DC
:1004200000000000000000000000000000000000CC
:1004300000000000000000000000000000000000BC
:1004400000000000000000000000000000000000AC
:10045000000000000000000000000000000000009C
:100460000000000000000000000000000000FFFD90
:10047000FBFAF8F7F5F3F2F0EFEDEBEAE8E7E5E386
:10048000E2E0DFDDDBDAD8D7D5D3D2D0CFCDCBCA0F
:10049000C8C7C5C3C2C0BFBDBBBAB8B7B5B3B2B099
:1004A000AFAFAFAFAFAFAFAFAFAFAFAFAFAFAFAF5C
:1004B000AFAFAFAFAFAFAFAFAFAFAFAFAFAFAFAF4C
:1004C000AFAFAFAFAFAFAFAFAFAFAFAFAFAFAFAF3C
:1004D000AFAFAFABA8A4A19D9A96938F8C8885816E
:1004E0007E7A7773706C6965625E5B5754504D49D4
:1004F00045423F3B3834302D2A26231F1C18151146
:100500000E0A0703000000000000000000000000C9
:1005100000000000000000000000000000000000DB
:1005200000000000000000000000000000000000CB
:1005300000000000000000000000000000000000BB
:1005400000000000000000000000000000000000AB
:10055000000000000000000000000000000000009B
:100560000000000000000000000103040608090B61
:100570000D0E1012131516181A1B1D1F20222425EC
:1005800027292A2C2D2F3132343637393B3C3E3F38
:100590004143444648494B4D4E5052535557595B81
:1005A0005D5F60626466686A6C6D6F7173757779A0
:1005B0007A7C7E8082848687898B8D8F91939496B6
:1005C000989A9C9EA0A1A3A5A7A9ABADAFB0B2B3CA
:1005D000B5B7B8BABBBDBFC0C2C3C5C7C8CACBCD0B
:1005E000CFD0D2D3D5D7D8DADBDDDFE0E2E3E5E761
:1005F000E8EAEBEDEFF0F2F3F5F7F8FAFBFD112482
:100600001FBECFEFD8E0DEBFCDBF11E0A0E0B1E06C
:10061000E4EEF5E102C005900D92A230B107D9F7E2
:1006200021E0A2E0B1E001C01D92AE32B207E1F7D5
:1006300028D5D6C7E5CCFA01108211821282643027
:10064000A9F028F4613061F0623069F008956031FA
:10065000A1F06032A1F06830B1F48FEF80830AC05E
:1006600080E8808305C08FEF818304C080E88183A8
:100670008FEF01C080E8828308958FEF03C08FEF72
:10068000808380E881830895873E9105D8F48D3D6D
:100690009105E0F5853B910568F4813A9105F0F507
:1006A0008D38910578F58937910550F58536910596
:1006B000C8F539C0833D910578F5893C910520F551
:1006C000607131C0813421E0920760F48D3221E005
:1006D000920710F58B3F9105E8F4813F9105C0F436
:1006E0006C7321C0893621E0920728F4853521E01A
:1006F0009207A0F015C08D3721E0920798F013C043
:10070000627011C064700FC060720DC068730BC05E
:100710006E7309C06F7307C0607305C0687003C053
:10072000667001C0617087CFDA01FC01E259FB4FAE
:10073000E491EC93FC01E252FD4FE4911196EC93AD
:100740001197FC01E25BFE4F849112968C93089501
:10075000FA01108211821282643089F038F461301B
:1007600059F0623089F488539F4F0EC0683051F0C1
:10077000603151F4C29608C086509F4F05C08A561A
:100780009F4F02C08C599F4F8039F1E09F0710F0B6
:100790008F589140C9CFFA011082118212826830BD
:1007A00059F028F4623071F0643049F00CC06031C7
:1007B00031F0603239F007C08A569F4F04C08C591F
:1007C0009F4F01C0C2968039F1E09F0710F08F580B
:1007D0009140AACFDA011C9211961C9211971296A1
:1007E0001C921297643079F030F4613071F062300D
:1007F00069F488960BC0683021F0603139F40A96AC
:1008000005C0449603C04E9601C0C2968D3D910529
:1008100010F08C5D91098436910548F4FC01E65195
:10082000FF4FE491EC93FC01EA57FF4F0DC09C0190
:100830002F5631092236310550F4FC01E458FF4FA0
:10084000849111968C931197849112968C930895AC
:10085000DA011C9211961C92119712961C92129713
:10086000643079F030F4613071F0623069F4889668
:100870000BC0683021F0603139F40A9605C0449607
:1008800003C04E9601C0C2968D3D910510F08C5D5F
:1008900091098436910538F4FC01E651FF4F8491AB
:1008A00011968C9308959C012F56310922363105FB
:1008B00068F48E569109FC01EA57FF4FE491EC93DE
:1008C000FC01E651FF4F849112968C930895DA0152
:1008D0001C9211961C92119712961C9212976430DA
:1008E00079F030F4613071F0623069F488960BC0B1
:1008F000683021F0603139F40A9605C0449603C08F
:100900004E9601C0C2968D3D910510F08C5D910907
:100910008436910560F4FC01E651FF4FE491EC93BD
:10092000FC01EA57FF4F849111968C9308959C0126
:100930002F5631092236310578F48E569109FC0183
:10094000EA57FF4FE4911196EC931197FC01E651A1
:10095000FF4F849112968C930895262F6DE870E0D6
:10096000C2D581359105A8F48734910538F58932CF
:10097000910548F48F31910538F58B30910568F178
:10098000459728F527C08D33910550F5C397C8F0DA
:1009900015C08F36910538F485369105C0F48B3536
:1009A000910590F40EC08338910520F489379105A4
:1009B00088F013C08D38910598F00FC0822F807297
:1009C0000895822F80710895822F88700895822F54
:1009D00084700895822F82700895822F8170089507
:1009E00080E008950F931F93CF93DF938C01EA016A
:1009F000188219821A82B1DF8823A9F1093181E0B6
:100A0000180760F4033D110528F50D381105F0F4C1
:100A100007341105B8F48FEF888325C0053A81E0CB
:100A2000180730F40F351140D0F48FEF898319C0C7
:100A30000B3E81E0180788F001331240A0F48FEFDD
:100A400088830FC08FEF888380E405C08FEF888391
:100A500080E801C08FEF898306C080E888838FEF2C
:100A600001C080E88A83DF91CF911F910F91089593
:100A7000CF93DF93EA01188219821A826EDF8823EE
:100A800021F08FEF888389838A83DF91CF91089546
:100A90000F931F93CF93DF938C01EA011882198281
:100AA0001A825BDF882379F00734110540F00D3896
:100AB000110548F48FEF898380EC8A8304C08FEF9F
:100AC000888380E28983DF91CF911F910F910895F0
:100AD000DB0190E0FC01E458FF4FE491EC93FC0152
:100AE000EE58FF4FE4911196EC931197FC01E859F1
:100AF000FF4F849112968C930895109204011092E6
:100B00000301EEE6F0E080818160808385B5887F17
:100B1000826085BD789408951F920F920FB60F9250
:100B200011248F939F93809103019091040101966A
:100B300090930401809303019F918F910F900FBEBA
:100B40000F901F9018952FB7F89480910301909102
:100B500004012FBF969587959695879508950F93D5
:100B60001F93CF93DF938C01C0910301D0910401B7
:100B70001092040110920301E6DF80179107E0F361
:100B8000D0930401C0930301DF91CF911F910F9186
:100B9000089510920401109203010895109210011B
:100BA00010920F0110920B0110920A0110920E0187
:100BB00010920D0110920C011092110108951092E3
:100BC000800010928500109284002DE7829FC00162
:100BD00011249093890080938800E1E8F0E08081FF
:100BE00088608083808183608083EFE6F0E080818D
:100BF000826080830895E1E8F0E080818E7F8083C9
:100C000080818D7F808380818B7F80830895F3DF57
:100C1000C5DF109212011092090110920801109282
:100C2000070110920601109205010895B7DF81E0D7
:100C300080931201089582E08093120110921101B5
:100C400081E08093090188E7BACF90911101903239
:100C500008F07CC020911201213009F077C0882370
:100C600009F44BC0983068F421E030E0092E01C04F
:100C7000220F0A94EAF780911001282B209310018B
:100C80003CC0292F30E088EF890F883088F4285045
:100C9000310941E050E0BA0102C0660F771F2A9582
:100CA000E2F79B0180910F01282B20930F0125C0B3
:100CB00080EF890F883088F42051310941E050E0FD
:100CC000BA0102C0660F771F2A95E2F79B01809157
:100CD0000E01282B20930E0110C02851310941E04C
:100CE00050E0BA0102C0660F771F2A95E2F79B0118
:100CF00080910D01282B20930D019F5F909311018E
:100D0000903221F520910E0180910D0190E0820F2B
:100D1000911D8F3F9105C9F48091100120910F0121
:100D200090E030E0AC01420F531F4F3F510561F09E
:100D3000322F2227822B932B90930B0180930A0151
:100D40001092100110920F0176CF61CF089580911B
:100D50000901813081F4809112018D7F61F48091CD
:100D60000C018F3F19F08F5F80930C0182E080931C
:100D7000120188E724CF4BCF8091070190910801A1
:100D8000892B51F18091050190910601892B21F168
:100D900080910701909108018C36934030F1809149
:100DA0000701909108018F359540F8F46091050195
:100DB0007091060180E090E0AED320E030E048EC96
:100DC00053E40AD418167CF5809105019091060130
:100DD0008E3E924040F52ADF1092080110920701E2
:100DE000109206011092050108956091070170911B
:100DF000080180E090E08FD320E030E044E352E44B
:100E0000EBD318160CF04CC06091070170910801EB
:100E100080E090E080D320E030E04EEB52E477D3E6
:100E200087FD20C03DC0609105017091060180E002
:100E300090E071D320E030E048E453E4CDD31816BD
:100E40005CF6609105017091060180E090E063D34B
:100E500020E030E048EC53E45AD318160CF4BCCF31
:100E600076DFBACF609105017091060180E090E0D5
:100E700052D320E030E84BE353E4AED3181694F499
:100E8000609105017091060180E090E044D320E07C
:100E900030E84DE653E43BD387FF04C081E020C037
:100EA000B6DE9ACF609105017091060180E090E076
:100EB00032D320E030E044E352E48ED318160CF035
:100EC0008BCF609105017091060180E090E023D303
:100ED00020E030E04EEB52E41AD387FF7DCF80E074
:100EE000B4DE7ACFFC01809112018230A9F48091A6
:100EF0000A0190910B01009719F48091100190E084
:100F00009183808380910E01828380910C01838381
:100F10001092120181E0089580E008951F920F92CF
:100F20000FB60F9211242F933F934F935F936F93BC
:100F30007F938F939F93AF93BF93EF93FF93809192
:100F40001201823061F14A991BC080910701909192
:100F50000801892B19F480E132DE21C080918400E0
:100F6000909185002091070130910801821B930B1D
:100F7000909306018093050180E121DEFDDE0FC024
:100F800080918400909185009093080180930701DF
:100F90008091070190910801892B09F438DEFF91B7
:100FA000EF91BF91AF919F918F917F916F915F91E1
:100FB0004F913F912F910F900FBE0F901F9018955A
:100FC0001F920F920FB60F9211242F933F934F93BE
:100FD0005F936F937F938F939F93AF93BF93EF93A1
:100FE000FF9309DE80911201823019F410920901F9
:100FF00001C00DDEFF91EF91BF91AF919F918F9155
:101000007F916F915F914F913F912F910F900FBE04
:101010000F901F901895CF93CFB7F89452985A9A83
:10102000E9E6F0E0808181608083E89AF0DDCFBF5F
:10103000CF91089580910001882339F0109200012A
:1010400015B818B888E08BB908958FEF8093000128
:101050001BB88AEF90E083CD8FEF84B987B98AEF10
:101060008AB9D9DF4ADDE6DF8BE193E0909317017F
:10107000809316018ECDFB019081907F892B808318
:101080000895CF93DF9300D000D0CDB7DEB7E4DF73
:1010900000E312E080910001882309F4A3C090913D
:1010A0002D0180912C018923809521E090911A01D6
:1010B000891708F020E090911801891710F090E04E
:1010C00001C092E0292B90911901891710F090E04E
:1010D00001C094E0292B90912901891710F050E06C
:1010E00001C058E0252B90912701891710F040E0AE
:1010F00001C040E1242B90912801891710F030E0C5
:1011000001C030E2922F932B20911E01821710F024
:1011100020E001C020E4292B90911F01891710F0D5
:1011200090E001C090E8922B95B921E090912601C2
:10113000891708F020E090912401891710F090E0C1
:1011400001C092E0922B20912501821710F040E01F
:1011500001C044E0292F242B90912301891710F01E
:1011600030E001C038E0922F932B209121018217AB
:1011700010F020E001C020E1292B90912201891775
:1011800010F090E001C090E2922B98B9909120016C
:10119000891710F024E001C024E190911D01891706
:1011A00010F090E001C090E2292B90911B0189176B
:1011B00010F090E001C090E4922B20911C01821766
:1011C00010F080E001C080E8892B8BB980912D015F
:1011D0008F3F29F490912C01909590932C018F5F73
:1011E00080932D01B0DC4A9708F454CFD2DCF894F8
:1011F000CE01019677DE7894882309F4E0C08981D6
:101200009A81892B09F0DBC0809100019B818111BB
:1012100003C0953409F0D3C080911301282F2078A2
:10122000923409F49AC0A0F49D30C1F138F498309A
:1012300009F469C09C3009F43CC0C1C0983109F47C
:1012400046C09C3109F46DC0963109F0B8C01DC08C
:101250009A3409F49CC028F4953469F0973481F0ED
:10126000AEC09A3509F46BC09E3509F43EC0923584
:1012700009F0A5C07EC08C8181119AC0DBDE98C0C8
:101280009C81911195C0805803C0222321F0807F5A
:10129000809313018DC08BE193E086C0211188C03B
:1012A0008CE791E0909315018093140184E493E01E
:1012B0007BC0222319F0807F8160EACF8FE891E024
:1012C000909315018093140184E993E06DC022236B
:1012D00019F0807F8260DCCF8FE891E09093150158
:1012E0008093140188EA93E05FC0222319F0807F85
:1012F0008360CECF8FE891E0909315018093140125
:101300008BEC93E051C0222319F0807F8460C0CF22
:101310008CED90E090931501809314018AEE93E098
:1013200043C0222319F0807F8560B2CF8CED90E01E
:10133000909315018093140188E294E035C0222334
:1013400019F0807F8660A4CF8CED90E0909315011A
:101350008093140187E694E027C0222319F0807F50
:10136000876096CF109315010093140182EF94E0EB
:101370001BC0222319F0807F88608ACF8CE890E020
:10138000909315018093140188E495E00DC0222309
:1013900019F0807F89607CCF8CE890E090931501F4
:1013A0008093140188E395E09093170180931601D0
:1013B0008B81873421F010922B0110922A018091A9
:1013C0000001882309F466CE80912A0190912B01B7
:1013D00020911401309115018217930728F0109283
:1013E0002B0110922A0105C0019690932B01809346
:1013F0002A018091130187FF2DC0BE016F5F7F4FCF
:101400008F7066DB89819A81AB81809327019093ED
:101410002801A09329018093240190932501A09392
:1014200026018093210190932201A09323018093B0
:101430001E0190931F01A093200180931B019093A4
:101440001C01A0931D018093180190931901A09392
:101450001A011ECEE0911601F091170148E151E00A
:1014600060E280912A0190912B010995E09116018B
:10147000F09117014BE151E060E180912A019091D8
:101480002B010995E0911601F09117014EE151E011
:1014900068E080912A0190912B010995E091160155
:1014A000F091170141E251E064E080912A019091AE
:1014B0002B010995E0911601F091170144E251E0EA
:1014C00062E080912A0190912B010995E09116012B
:1014D000F091170147E251E061E080912A0190917B
:1014E0002B010995D5CDAA1BBB1B51E107C0AA1F33
:1014F000BB1FA617B70710F0A61BB70B881F991FB5
:101500005A95A9F780959095BC01CD01089540D0DA
:1015100008F481E00895E89409C097FB3EF49095A3
:101520008095709561957F4F8F4F9F4F9923A9F0BC
:10153000F92F96E9BB279395F6958795779567954B
:10154000B795F111F8CFFAF4BB0F11F460FF1BC08F
:101550006F5F7F4F8F4F9F4F16C0882311F096E922
:1015600011C0772321F09EE8872F762F05C06623D0
:1015700071F096E8862F70E060E02AF09A95660F89
:10158000771F881FDAF7880F9695879597F9089542
:10159000990F0008550FAA0BE0E8FEEF1616170684
:1015A000E807F907C0F012161306E407F50798F0EC
:1015B000621B730B840B950B39F40A2661F0232B05
:1015C000242B252B21F408950A2609F4A140A69581
:1015D0008FEF811D811D0895DBDF08F48FEF0895E3
:0415E000F894FFCFAD
:0215E400FF0006
:00000001FF
